:1000000000800020BD010000110F0000D50E00008F
:10001000D50E0000D50E0000D50E0000D50E000054
:10002000D50E0000D50E0000D50E0000110F000007
:10003000110F0000D50E0000110F0000C50E0000CA
:10004000110F0000110F0000110F0000110F000030
:10005000110F0000110F0000110F0000110F000020
:10006000110F0000110F0000110F0000110F000010
:10007000110F0000110F0000110F0000110F000000
:10008000110F0000110F0000110F0000110F0000F0
:10009000110F0000110F0000110F0000110F0000E0
:1000A000110F0000110F0000110F0000110F0000D0
:1000B000110F0000110F0000110F0000110F0000C0
:1000C000110F0000110F0000110F0000110F0000B0
:1000D000110F0000110F0000110F0000110F0000A0
:1000E000110F0000110F0000110F0000110F000090
:1000F000110F0000B12A0000110F0000153200009E
:10010000110F000091370000110F0000110F0000C7
:10011000110F0000110F0000110F0000110F00005F
:10012000110F0000110F0000110F0000110F00004F
:10013000110F0000110F0000110F0000110F00003F
:10014000110F0000110F0000110F0000110F00002F
:10015000110F0000110F0000110F0000110F00001F
:10016000110F000051130000110F0000110F0000CB
:10017000110F0000110F0000110F0000110F0000FF
:10018000110F0000110F0000110F0000110F0000EF
:10019000110F0000110F0000110F0000110F0000DF
:1001A000110F0000110F0000110F0000110F0000CF
:1001B000110F0000110F0000110F0000574B4CF2FF
:1001C000205210B51A804DF628121A8000BF00BFC9
:1001D00000F0A2FE524B4FF010621A60514A9A6032
:1001E000514ADA60A3F53043203B1A6812F480725A
:1001F00004D14E490A604FF4A8521A604C4B1A7849
:10020000110703D51A7842F008021A70494B4A4C7C
:100210004A482A221A704A4A00239918A14203D256
:10022000195899500433F8E7464B474900228B424E
:1002300002D243F8042BFAE74448454900235A58B0
:100240001A500433B3F5DE7FF9D1424B424A802184
:1002500003F8011B9342FBD1404B3C4A1A60404BD0
:100260008A221A70A3F5805324225A70A0221A7091
:100270009A799207FCD59A79D406FCD4394A9379B5
:1002800003F00C03082B374BF9D103221A714022DB
:100290005A719A799006FCD5324A9179314B4906C8
:1002A000FBD5314A314911600221516020221A7078
:1002B0009A7902F00C020C2AFAD12D4B2D4A1A60C1
:1002C0002D4B2E4A1A6000225A60072243F8042C54
:1002D0002B4AC3F80C2D62B600F0FAFE134B1B68D4
:1002E000DA0705D5274800F047FE274B274A1A6052
:1002F000274B1B785B0609D5234C244A236893427D
:1003000004D1204800F038FE0023236003F026FDCE
:1003100000F008FE01F0B2FFFEE700BF0E2005402E
:1003200030800440823F04000100002B14D00340C1
:1003300002D0074000E007405C9CFF1F48500000CF
:100340006093FF1F5C9CFF1F58AAFF1F008EFF1FBA
:100350000000000000E400E05FE400E008ED00E0E1
:100360000050064000400640448004400000030165
:1003700004800440C010050014E000E0FF76010096
:1003800000002020CD2E8D581CE00340A5C3945AB8
:1003900000F00740FFFFFFFFFFFFFFFFFFFFFFFF32
:1003A000FFFFFFFFFFFFFFFFFFFFFFFFFFFFFFFF5D
:1003B000FFFFFFFFFFFFFFFFFFFFFFFFFFFFFFFF4D
:1003C000FFFFFFFFFFFFFFFFFFFFFFFFFFFFFFFF3D
:1003D000FFFFFFFFFFFFFFFFFFFFFFFFFFFFFFFF2D
:1003E000FFFFFFFFFFFFFFFFFFFFFFFFFFFFFFFF1D
:1003F000FFFFFFFFFFFFFFFFFFFFFFFFFFFFFFFF0D
:10040000FFFFFFFFFFFFFFFFFFFFFFFFDEF9FFFF23
:1004100010B5054C237833B9044B13B10448AFF33E
:1004200000800123237010BD5C9CFF1F00000000B2
:100430004850000008B5064B1BB106480649AFF30B
:1004400000800648036813B1054B03B1984708BD07
:100450000000000048500000609CFF1F5C9CFF1FD4
:100460000000000010B5044C204600F0D9F92046E9
:1004700000F0A0FB10BD00BF809CFF1F2DE9F04FD6
:1004800093B0574B1F88574B1B68574A82FB031288
:10049000A2EBE37202EB4202934240F09180524A97
:1004A00082FB0312A2EBE3720092504C23685B685C
:1004B00020464F4904229847204601F095FD494BBC
:1004C0001B68022B6EDDFF00009B5B000193002484
:1004D000484D454EA7425CDD2B68DDF800A0A244E4
:1004E000DDF80490A14413F8092013F8048042EACF
:1004F000084813F80A3048EA032802A83E4901F0E8
:100500000BFE2B6806A8195D01F02CFE02A806A9B7
:1005100001F084FE394901F08BFE83462B680AA85E
:1005200013F80A1001F01EFE58460AA901F076FEE3
:10053000334901F07DFE82462B680EA813F809109E
:1005400001F010FE50460EA901F068FE0146DFF8EA
:100550009C90484601F022FD484601F045FD0EA85A
:1005600001F08EFD0AA801F08BFD06A801F088FDC0
:1005700002A801F085FD484641461022002301F003
:1005800043FD484601F030FD1E482146424600F03A
:1005900085FB0134134B1B6886FB0312A2EBE3734C
:1005A000A34297DC114C23685B6820461649082259
:1005B0009847204601F018FD124800F0FBFA09E0C8
:1005C0000A4C23685B68204610490E229847204653
:1005D00001F00AFD00220E4B1A8013B0BDE8F08F27
:1005E00016A7FF1F849CFF1F5655555538A8FF1F9F
:1005F000104D0000789CFF1F184D00001C4D00009E
:10060000204D0000809CFF1F244D0000304D000055
:10061000889CFF1F30B591B001F0F4FA002840F338
:10062000A18001F0A3FAC4B24F4B1B8893B94F4B82
:100630001B78A34240F096804D4C23685B682046AF
:100640004C4906229847204601F0CEFC0122464B39
:100650001A8087E01AB2012A05D1474B1C8002227A
:10066000414B1A807EE01AB2022A2BD1424B5C80A9
:10067000424CB3F90030C3EB032353FA80F02060FF
:1006800068463F4901F048FD04A821680A2201F0AC
:100690007DFD684604A901F0C1FD0146344C2046A9
:1006A00001F07CFC204601F09FFC04A801F0E8FC6E
:1006B000684601F0E5FC0022324B1A6003222A4B07
:1006C0001A804FE01AB2032A21D12F4D2C80042228
:1006D000254B1A8008A82D4901F01EFD0CA8B5F97C
:1006E00000100A2201F052FD08A80CA901F096FDA5
:1006F00001461F4C204601F051FC204601F074FCDD
:100700000CA801F0BDFC08A801F0BAFC2AE01BB25D
:10071000042B27D11B4B1B68184A1268013A9A42D6
:1007200020DB194AB2F900207AB94BB9184D286874
:1007300003F044FB114B1868012103F0CDFA286047
:10074000134B1A680F4B1B68D4540E4A13680133BD
:1007500013600A4A1268934204DBFFF78FFE0022FF
:10076000014B1A8011B030BD889CFF1F6493FF1F9E
:1007700038A8FF1F404D00000CA7FF1F849CFF1FDF
:10078000484D000010A7FF1F7C9CFF1F504D00002C
:10079000789CFF1F00B583B00223009304487021AA
:1007A000044A054B00F026F803B05DF804FB00BFD7
:1007B000809CFF1F0082FF1F8C9CFF1F08B5064B0B
:1007C0001A79064B1A7000F04BFC054B186000229A
:1007D000044B1A7008BD00BF30A7FF1F1F800040E8
:1007E0002CA7FF1F28A7FF1F10B5044601F084FBAC
:1007F000204610BD10B4064C218006490A60064A06
:100800001360064B9DF804201A705DF8044B704786
:1008100016A7FF1F18A7FF1F24A7FF1F14A7FF1F5E
:1008200038B50546A34B1C8804EB4404E400A24BF6
:1008300018680021224603F0C5FDA04B186820B1BE
:100840000021224603F0BEFD03E09B4B1A689B4B40
:100850001A60FF229A4B1A600220012100F0C0FBAF
:100860000E20012100F0BCFB0720012100F0B8FBA5
:100870000820012100F0B4FB0620012100F0B0FBAC
:100880001420012100F0ACFB1520012100F0A8FB91
:100890000520012100F0A4FB8A4B1B7803F0F00334
:1008A000102B03D0202B09D06BB903E032232B800F
:1008B00085480BE032232B80844807E04FF4967381
:1008C0002B80824802E032232B808048804A00211E
:1008D0001160804B1960430803F1377303F5D84367
:1008E000B3FBF0F35D1E7C480560082010606922B0
:1008F0007A48026008300260C3EB0310C0F397101F
:10090000774A1060B02202FB03F31B0A754A13609A
:10091000754A764B1A60764B1A68106875481060F5
:100920001B6819715971D971197359739973D973F6
:100930001A69714A1A611975597502229A711976E4
:1009400059769976D97601221A7259729972D972AA
:10095000B3F9142012B101221A755975DA8822F4FC
:10096000E06222F4E06222F00702DA80B4F5004F80
:1009700015D2B4F5007F05D3A2B2D98BDA83D98A18
:10098000DA820CE0D98BA2B201F47E41D88B1143FC
:10099000D983D98A01F47E41D88A0A43DA829A8BB4
:1009A00092B2998B002142F008029A83424B186858
:1009B000524B1A68156810601B6801221A71597130
:1009C000D9711A7259729972D9726242DA60A0B200
:1009D000DA8BD883DD8AD8821A69494A1A61197577
:1009E000597502229A71197659769976D976B3F9A2
:1009F000142012B101221A755975DA8822F4E062C6
:100A000022F4E06222F00702DA80B4F5004F13D23C
:100A1000B4F5007F04D3DA8BD883D98AD8820BE06F
:100A2000DA8B02F47E42D98B0243DA83DA8A02F44B
:100A30007E42D98A0243DA829A8B92B2998B002144
:100A400042F008029A832F4B1A681568294D1560E9
:100A50001B6819715971D971197359739973D973C5
:100A60001A69174A1A611975597502229A7119760D
:100A700059769976D97601221A7259729972D97279
:100A8000B3F9142012B101221A755975DA8822F4CB
:100A9000E06222F4E06222F00702DA80B4F5004F4F
:100AA0003ED2B4F5007F2FD3DA8BD883DA8AD8828E
:100AB00036E000BF16A7FF1F18A7FF1F24A7FF1FC0
:100AC000C8F00F4014A7FF1F801A060000350C0065
:100AD00000800B4004800B4008800B400C800B40D2
:100AE00010800B4018800B400003010048A0044018
:100AF0001CA7FF1F6593FF1FC4F00F4038A7FF1FFF
:100B0000C0F00F4030A7FF1FDA8B02F47E42D98B72
:100B10000243DA83DA8A02F47E42D98A1043D88209
:100B20009A8B92B2998B002042F008029A839A8B9A
:100B300092B2998B42F002029A83194A137903F117
:100B4000804303F504331870B221197015490B79ED
:100B500003F1804303F504331870A2241C70124C77
:100B6000237903F1804303F504331870A320187030
:100B7000204601F0DBF9227902F110010B480C4B01
:100B800043F8210053119B0003F1604303F56143D7
:100B900002F01F02012101FA02F21A6038BD00BF03
:100BA0001CA7FF1F38A7FF1F30A7FF1FBD070000AE
:100BB000008EFF1F38B505462A4A137813F0FF0F41
:100BC000FBD1294B1968294B1868814206D0284B64
:100BD0001B8803EB4302D20000F0DAF8254C00F04A
:100BE0003FFA2368C01A2A889042F8D32823224A61
:100BF000136008321360012000F054FA1F4B1B6889
:100C000072B61F490A689342FCD21D490A68934292
:100C1000FCD31B490A689342FCD81A4A002313608C
:100C20000121104B19704FF48021174B196003F507
:100C3000DB2303F26C73282018601968692119609E
:100C40000833186018681960104B1979104B197027
:100C5000104909791970104909791970082313602E
:100C600062B638BD28A7FF1F24A7FF1F18A7FF1FC4
:100C700016A7FF1F2CA7FF1F0C800B4018800B40EE
:100C800004800B4000800B40A0A004401CA7FF1F65
:100C90001B80004038A7FF1F30A7FF1F70B4234BF5
:100CA0001B7803F00703022B0CD0032B14D0012B6D
:100CB0001AD102F47F03100280B2C2F3072202436A
:100CC0001A4311E0100200F47F00131203F47F4373
:100CD0000343D2B21A4307E0130223F07F4323F009
:100CE000FF03C2F307421A43114B1888B1FBF0F31C
:100CF00001259D40EEB200FB131101EB41010D4BAC
:100D00001B6803EBC103013318204FF40001ED43CE
:100D1000114213F8014C14BF34432C4003F8014C2A
:100D2000490801330138F3D170BC704714A7FF1F85
:100D300016A7FF1F24A7FF1F70B5104E30460021D5
:100D400001F07CF80E4D0F4C30462946224602F049
:100D5000BDFF0D4E3046002101F070F830462946A7
:100D6000224602F0B3FF094E3046002101F066F83A
:100D700030462946224602F0A9FF70BD1CA7FF1F7E
:100D8000E90700006093FF1F38A7FF1F30A7FF1F70
:100D9000844641EA000313F003036DD1403A41D386
:100DA00051F8043B40F8043B51F8043B40F8043B45
:100DB00051F8043B40F8043B51F8043B40F8043B35
:100DC00051F8043B40F8043B51F8043B40F8043B25
:100DD00051F8043B40F8043B51F8043B40F8043B15
:100DE00051F8043B40F8043B51F8043B40F8043B05
:100DF00051F8043B40F8043B51F8043B40F8043BF5
:100E000051F8043B40F8043B51F8043B40F8043BE4
:100E100051F8043B40F8043B51F8043B40F8043BD4
:100E2000403ABDD2303211D351F8043B40F8043B74
:100E300051F8043B40F8043B51F8043B40F8043BB4
:100E400051F8043B40F8043B103AEDD20C3205D384
:100E500051F8043B40F8043B043AF9D2043208D07C
:100E6000D2071CBF11F8013B00F8013B01D30B88EE
:100E700003806046704700BF082A13D38B078DD0CC
:100E800010F003038AD0C3F10403D21ADB071CBF9E
:100E900011F8013B00F8013B80D331F8023B20F808
:100EA000023B7BE7043AD9D3013A11F8013B00F841
:100EB000013BF9D20B7803704B7843708B788370C9
:100EC00060467047024B1A6801321A60704700BFD3
:100ED00040A7FF1F08B50D4C236813F4802F01D0E5
:100EE00000F036FA236813F4806F01D001F0E0FDC2
:100EF000236813F4006F01D002F08CF9236813F417
:100F0000805FE9D002F044FCE6E700BF3480044093
:100F100008B5FFF7DFFF00BF1022014B1A807047B2
:100F200000200540704700BF024A13681844106053
:100F3000184670476893FF1FEFF31383ABB9EFF3C5
:100F40001083ABB9EFF3058323B10F2B05D9094A01
:100F5000985C03E04FF4807000E00020EFF3118311
:100F60003BB1834238BF184670474FF0FF3070479F
:100F700000207047F0E300E0044B00221A600449AF
:100F80000A60044A106010221A60704714D00340AF
:100F900004D0034000D0034021281ED80F4B53F843
:100FA000303093F8802212F0FF0F08D019B10122DF
:100FB00083F880207047012283F800217047074B97
:100FC00003EBC000436821B11A6842F003021A60C3
:100FD00070471A6822F002021A607047584D0000EC
:100FE00021283AD81D4B03EBC0035B68012919D0B7
:100FF000042925D0194A52F83020002082F88002B6
:1010000019B94FF480721A607047022903D140F277
:1010100003121A60704703290CBF4FF4817200223B
:101020001A6070470D4A52F83020012182F8801270
:101030004FF4A2721A601A6822F020021A607047F8
:10104000064A52F83020012182F880124FF4A27231
:101050001A601A6842F020021A607047584D00006A
:1010600072B60C4B1B680C4A12680C49096862B6D0
:1010700011F0806F02D0322B88BF0132C3F5BB3331
:10108000FF330749A1FB03039B094FF47A7000FB70
:101090000230704718E000E040A7FF1F04ED00E0B9
:1010A000ABAAAAAA38B50546FFF7DAFF044625B968
:1010B00038BD013D0AD004F57A74FFF7D1FF001B5B
:1010C000B0F57A7FF5D201F011F9F6E738BD00BF2F
:1010D00010B5264B4FF400021A604FF080721A6070
:1010E0004FF000721A604FF080621A604FF0006299
:1010F0001A6000201E4B18604BF6FF710433196014
:1011000028231C4A13600832136008321360083227
:10111000136008321360083213600832136008321B
:1011200013600922144C226004F5805404342060BA
:10113000043421600434236008342360143C2260AA
:1011400004F5FE24043420600C4801600C490B6057
:1011500008310B600B4B1A6001F0EAF84FF4C870CD
:10116000FFF7A0FF00F074FC10BD00BF08E100E035
:10117000048003400C8003400080034008800B4043
:101180000C800B4000800B4030B40E4B1B7843F0BA
:1011900002020D4C04EBC20460600C480078002889
:1011A0000CBF8824C82444EA0141074D45F8321099
:1011B00080F00100054A107083F00103014A1370AA
:1011C00030BC7047ACA7FF1F0080FF1F25A8FF1F82
:1011D00010B4431E032B11D872B60A4A52F82300EA
:1011E00050B14268074941F82320074A32F81340BA
:1011F0000188611A22F8131062B600E000205DF841
:10120000044B70479CA7FF1F40AAFF1F013803280B
:101210000DD872B6074B53F820302BB100200130A7
:101220005B68002BFBD100E0002062B67047002015
:10123000704700BFF0A7FF1F38B572B601231B49E6
:101240001B4C5A1812F8012C12F0080F24D09A00E7
:1012500054F832506DB9164B03EBC20108304860A8
:10126000144943F83210144B1A78013A1A7062B6D6
:1012700038BD42F0010254F832506DB90C4B03EB0B
:10128000C201083048600D4943F832100A4B1A7801
:10129000013A1A7062B638BD0133052BD1D162B65E
:1012A0000022054B1A7000F037FC38BD984E000044
:1012B0000080FF1F880040001AA8FF1FC8004000E0
:1012C00010B4431E032B37D8400140F010001C4AD5
:1012D000104472B61B4AD25C032A09D8DFE802F038
:1012E00019021B050830022216E00830042213E020
:1012F000154A52F823201AB9134A42F8231003E082
:10130000124A52F823205160104A42F8231062B664
:1013100012E0032200E005220A4CE25401F1080326
:10132000436000F00803002B0CBF8823C8230A8801
:1013300043EA0243036062B65DF8044B704700BFA6
:101340000080FF1F58A7FF1FF0A7FF1F00A8FF1F67
:101350002DE9F84FA34CDFF8E092DFF8E0A2DFF8C8
:10136000E0B22578EDB215F0040F1DD09E4B1B782E
:1013700013F0FF0F16D09D4B1B7803F0FF022BB12B
:10138000531EDBB2994A137003B900BE984B1B7809
:1013900003F0FF0233B1531EDBB2954A13700BB951
:1013A00000F018FD0423237015F0080F00F0E4820C
:1013B00099F80030DBB21D0940F021828D4D9E0866
:1013C00005EBC6035A6855F83630C3F38303013B77
:1013D0000C2B00F21082DFE813F0CB01CB010E02E0
:1013E0000E020E020E020E020E02E8010E020E02A4
:1013F0000E020D00804913680B6052684A607F4AF4
:1014000045F8362000227E490A607A490A618A61DD
:1014100001217C4A11709BB240F28162934218D83C
:10142000B3F5D06F2ED2B3F5817F00F01E8106D8C0
:10143000802B00F0C980822B00F0CC8066E140F266
:101440000232934200F02681B3F5A06F00F0628172
:101450005CE142F22102934200F0868107D8B3F5A5
:10146000086F00F0AB80B3F5106F11D04EE142F27F
:101470002122934200F0418142F22132934200F056
:10148000498143E1604B5D68002D40F0188130E1F7
:10149000594B9A78544B1A70564D05F180062B6AB9
:1014A00013F0800F03D0686A083800F035FB083568
:1014B000B542F4D1DFF88C8100263746534AB05844
:1014C00028B1456800F028FB0DB12846F9E7002354
:1014D0004E4973504E4AB3504E4BF05828B14568B0
:1014E00000F01AFB0DB12846F9E700234949735073
:1014F000494AB35028F8023F484BFB5C023B032BA0
:101500000AD8DFE803F0020602060022434BDA5550
:1015100002E00122414BDA5501370436102ECDD1BD
:1015200000223F4B1A7001253E4EDFF81C81314FDF
:1015300005EB080313F8013C06F8043B13F0080F11
:101540002DD000F0C9FA48B1A90007EB451200F10F
:1015500008035360344A47F8312007E0AB0000220B
:1015600047F833202E4B1A7801321A7000F0B4FA83
:1015700058B1AB0043F0010307EBC30100F10802CF
:101580004A601E4A47F8332009E0AB0043F00103EC
:10159000002247F83320224B1A7801321A70AA0031
:1015A00042F00201002347F8313042F0030247F8CD
:1015B000323001351D4B9E42BAD11EE20A4B1B78D8
:1015C0001B4D2B700127AAE0194D00232B706B7067
:1015D0000227A4E0084B9B88042B37D90F22154B18
:1015E0001A70C1E08020074024A8FF1FADA7FF1F8D
:1015F00026A8FF1F0080FF1F10A8FF1FC800400083
:1016000044A7FF1F25A8FF1F9C4E00009CA7FF1F9B
:1016100048A7FF1FF0A7FF1F00A8FF1F58A7FF1F25
:101620001AA8FF1FC420074088004000D4200740AC
:101630001CA8FF1FC02007409020074094200740AF
:10164000982007403EAAFF1F984E0000A04A0021A4
:10165000117051709F4A12F8233013F0020F5CD0C2
:101660009B4D01232B70022759E09B4B9B8803F075
:101670007F03042B02DC984A52881AB10F22954B43
:101680001A7071E0934A12F8231021F0020102F857
:101690002310B2E1904B9B8803F07F03042B02DC04
:1016A0008D4A52881AB10F228A4B1A705CE0894A1F
:1016B00012F8231041F0020102F823109DE1864B3D
:1016C0005E889F88854BA3F10C02114633F80C0C01
:1016D000B04209D133F80A0CB84205D1360A032EBC
:1016E0000CBF2F7817891AE00D690C330C32002DCE
:1016F000EBD10F22774B1A7036E0794B1A68794B91
:101700001A60754B9A78784B1A7076E10F22714BFC
:101710001A7029E000273D4601E002276C4D6E4B10
:10172000DB889F4228BF1F46402F34BF3E464026DD
:1017300028463146FFF728FD3544BF1B03D13F2E15
:1017400000F2608110E0402F34BF3E46402628461C
:101750003146FFF719FD3544BF1B01D13F2E03D998
:10176000624B1D60624B1F8001238AF8003042E00B
:10177000594B198842F22103994212D15D4BD81D71
:1017800012F8011B03F8011F8342F9D15A4B1B6861
:10179000862B02D10F22594B1A7000200146FFF709
:1017A000F3FC574B45F8363025E0504B1E68BEB170
:1017B0004F4FB7F80080B8F1400F34BF4546402581
:1017C00030462946FFF7E0FCC5EB08039BB23B809F
:1017D0000BB9402D01D1354400E00025434B1D607D
:1017E0003D4B1B88B3F5A06F05D13B4B00225A70CF
:1017F0009B788BF8003001238AF80030B9E0414E25
:101800009F0806EBC708D8F80420A2F10800013DA4
:10181000EDB213F0080F47D000F07EF93A4B53F8C1
:1018200025304BB35A68384941F8252003F10802A6
:10183000C8F80420354A525D032A12D8DFE802F0C6
:1018400002060A0E0321314A51550AE002212F4AAD
:10185000515506E005212D4A515502E004212B4A3D
:10186000515518F0080F0CBF8822C8221B8842EA85
:10187000034346F837307CE0244B5B5D032B0BD8E9
:10188000DFE803F0777702060022204B5A5570E01C
:1018900001221E4B5A556CE018F0080F0CBF0222B3
:1018A00003221A4B5A5564E056F837301B0C22F8C5
:1018B000083C002B55D0002322F8063C42F8043C9B
:1018C000134B53F825302BBB114B43F8250025E073
:1018D0001CA8FF1FC020074010A8FF1FA84E000033
:1018E00040A7FF1F50AAFF1F34A8FF1F44A7FF1FD8
:1018F00018A8FF1F47AAFF1F48AAFF1FADA7FF1F79
:10190000C80040000080FF1FF0A7FF1F58A7FF1F5F
:101910009CA7FF1F3F4B53F8253058603D4B43F8C1
:1019200025003D4B33F8151032F8082C0A4423F8F3
:10193000152000F0D1F860B100F10803C8F80430B8
:1019400018F0080F354B364A08BF134646F83730B3
:101950000FE0002346F83730324B1A7801321A7004
:1019600007E018F0080F2D4B2D4A08BF134646F824
:10197000373008232370F4E415F0010F22D02A49F0
:1019800002230B700022294B1A70294B244818603F
:10199000284C5C6098602848D8601A619A610D20D4
:1019A000264B1870FF232648037008380370183040
:1019B0000270244A13709F22234B1A7001230B706C
:1019C000BDE8F88F15F0800F05D00D221B4B1A7063
:1019D0008022403B1A7015F0020F06D0184B1A787F
:1019E000D2B21A700222083B1A7015F0100F0ED0F6
:1019F0001022164B1A70BDE8F88F00200146FFF741
:101A0000C3FBB1E628460021FFF7BEFBACE6BDE80C
:101A1000F88F00BF48A7FF1F40AAFF1FC800400063
:101A2000880040001AA8FF1F94200740ACA7FF1FA2
:101A30000080FF1F5CA7FF1FB0A7FF1FC02007404B
:101A4000882007408C2007408420074080200740E2
:101A500008B501F011FF00231B491A465A50C81857
:101A600042600833882BF9D1184B1A6842F480225F
:101A70001A60154BC3F30721154A1170C3F30741D0
:101A8000143211701B0E04321370FF23343A13709A
:101A900008321370783A13700123843213700021D6
:101AA0006C3211707C3A137070220A4B1A704FF42A
:101AB0000072A3F241331A60102203F1C04303F510
:101AC000C8231A7008BD00BF0080FF1F3480044087
:101AD0009C20074049E400E072B60D4B1A68B2FA48
:101AE00082F30B2B02D962B6002070474FF0004101
:101AF000D94022EA010206490A6062B6054903EBB1
:101B0000C303DB00C8180022CA504260704700BF00
:101B10006C93FF1F0090FF1F08B50F4BC31A0F4AAD
:101B2000A2FB03131B090B2B14D80D4A12783AB1F0
:101B30000C4A127812F0FF0F02D0FFF77DFB08BDB0
:101B400072B6094A4FF0004121FA03F311681943B4
:101B5000116062B608BD00BF0090FF1F398EE338E8
:101B60001AA8FF1F24A8FF1F6C93FF1F10B5134B6B
:101B70001B6853B9124B1B7813F0FF0F18D00320CA
:101B8000FFF726FB0D4B1860A8B10C4B1868438873
:101B90005A1C03441C7A03889A4206D3FFF7BCFF01
:101BA0000022064B1A60204610BD4280204610BD20
:101BB0004FF0FF3010BD4FF0FF3010BD30A8FF1FB9
:101BC00024A8FF1F08B50D4B1B6883B90C4B1B786D
:101BD00013F0FF0F08D00320FFF7FAFA074B186045
:101BE00028B94FF0FF3008BD4FF0FF3008BD034B60
:101BF0001B685A881344187A08BD00BF30A8FF1F1D
:101C000024A8FF1F044B9888044B1B681BB11A883B
:101C10005B88D31A1844704740AAFF1F30A8FF1FE3
:101C200010B50B4B1B7813F0FF0F0FD0094B186842
:101C300020B1FFF771FF0022064B1A6003242046F3
:101C4000FFF7C6FA10B1FFF767FFF8E710BD00BF56
:101C500024A8FF1F30A8FF1F2DE9F84F04460122DA
:101C6000384B1A708B46002965D00E46DFF8E080AD
:101C7000DFF8E0909A46344FD8F8003083BB99F8EB
:101C8000003013F0FF0F06D100222E4B1A704FF0D8
:101C9000FF30BDE8F88F4AF2F9250420FFF7B6FAC5
:101CA00007280AD801238AF80030FFF715FFC8F883
:101CB0000000A8B900238AF80030013D01D03B782C
:101CC00033B10122204B1A704FF0FF30BDE8F88F7E
:101CD00000F00CFB99F8003013F0FF0FDDD1D3E7D3
:101CE00000233B70D8F800104A88C2F14005AE428C
:101CF00038BF354602F108030B442A444A80761B5C
:101D00003DB1254414F8012B03F8012BAC42F9D165
:101D100000E025464B883F2B07D940230B80042049
:101D2000FFF7CEFA0023C8F800300522074B1A70DF
:101D30000EB12C46A0E70022024B1A705846BDE8AF
:101D4000F88F00BF27A8FF1F2CA8FF1F26A8FF1F82
:101D500028A8FF1F24A8FF1F00B583B002AB03F81B
:101D6000010D18460121FFF777FF03B05DF804FB72
:101D700010B5144B1B7813F0FF0F21D00122124B2A
:101D80001A70124B196851B10024114B1C704B880A
:101D90000B800420FFF794FA0C4B1C600DE0FFF75A
:101DA0009BFE014630B10022094B1A700420FFF758
:101DB00087FA02E00122064B1A700022024B1A70C9
:101DC00010BD00BF24A8FF1F27A8FF1F28A8FF1FC2
:101DD00026A8FF1F08B50E4B1B7813F0FF0F16D176
:101DE0000C4B196841B14B880B800420FFF768FA4F
:101DF0000022084B1A6008BDFFF76EFE014618B1BD
:101E00000420FFF75DFA08BD0122034B1A7008BDDC
:101E100027A8FF1F28A8FF1F26A8FF1F027902F08E
:101E2000FC0303F1804303F50143186800BA02F094
:101E30000302D200D04000F00F00704730B472B6F9
:101E400099B902688AB103790F2B0ED827490988FE
:101E5000194111F0010F08D003F1007303F59063ED
:101E6000B2EB431F01D162B63EE0204B1D882946EC
:101E7000002341FA03F212F0010F2DD1012202FAE0
:101E800003F42543194A158062B6DAB20271184983
:101E90000C6844F002040C6004390C6844F002043D
:101EA0000C60822413490C601A310A7004310A70E4
:101EB00006390A7007310A7003F1007303F5906365
:101EC0005B01036000221A605A609A60DA601A614E
:101ED0005A619A61DA6107E00133102BC9D162B609
:101EE000002303601023037130BC704736A8FF1F26
:101EF000408004400080004003790F2B10D8094A2D
:101F0000137072B6084B0279012101FA02F21988A6
:101F100021EA02021A8062B61023037100230360D3
:101F2000704700BF1A80004036A8FF1FF8B506466C
:101F30000C4615460846FFF771FF07462846FFF78F
:101F40006DFF874207D223792A7922712B7122688B
:101F50002B6823602A603046FFF760FF0746204663
:101F6000FFF75CFF874207D2337922793271237100
:101F700032682368336022602046FFF74FFF064631
:101F80002846FFF74BFF864207D223792A79227130
:101F90002B7122682B6823602A60F8BD2DE9F0437D
:101FA0008BB0074688468C68C4B100252E464FF09A
:101FB0002109404601A94A462B4600F047F9202C4A
:101FC00034BF224620221544A41A3B685B68384679
:101FD00001A998470644002CEBD100E000263046CA
:101FE0000BB0BDE8F08300BF00B583B0054B1B8884
:101FF000ADF8043003685B6801A90222984703B07A
:102000005DF804FB684E0000F0B58BB0164622B9AF
:1020100003681B68C9B298472FE0012A08BF0A2647
:1020200021B930228DF82520212417E021243746BC
:10203000B1FBF6F506FB1515EDB22246092D94BF4E
:1020400030353735EDB20DF1280E724402F8245CBC
:10205000B1FBF7F111B1013CE4B2E9E733B1013C66
:10206000E4B20AAB23442D2203F8242C03685B68F6
:1020700001A92144C4F1220298470BB0F0BD00BF72
:1020800010B50446006801F099FE204610BD00BF5F
:1020900038B504460D460068013102F0E1F918B187
:1020A00020606560012038BD002038BD10B50446B1
:1020B00043688B420AD2FFF7EBFF034648B1A3689F
:1020C00033B9236800221A70012302E0012300E0E3
:1020D0000123184610BD00BF70B504460E461546D4
:1020E0002AB9036803B11A700023A36012E01146F5
:1020F000FFF7DCFF48B9206818B101F05FFE00234C
:10210000236000236360A36004E0A560206831467B
:1021100002F0A6FB204670BD38B5044600230360DC
:102120004360836003730D4639B1084602F0F6FB45
:10213000024620462946FFF7CFFF204638BD00BFA4
:1021400038B504460D4641B1084602F0E7FB0246A9
:1021500020462946FFF7C0FF01E0002383602046A8
:1021600038BD00BF10B582B0044600230360436051
:1021700083600373084601A90A2200F063F9204630
:1021800001A9FFF7DDFF204602B010BD10B586B0F3
:10219000044600230360436083600373084601A97B
:1021A00000F072F9204601A9FFF7CAFF204606B0E9
:1021B00010BD00BF2DE9F84304460D46164682685F
:1021C00003688B4206D899188D4205D2C3EB0509E6
:1021D000012702E0002700E00027DEB106EB02083D
:1021E00020464146FFF762FFA0B15FB12168A068B9
:1021F000084449443246FEF7CBFD2368002203F829
:10220000082005E02068A3681844294602F028FB4E
:10221000C4F808802046BDE8F88300BF10B5044626
:102220000B4609689A68FFF7C5FF204610BD00BF3E
:1022300038B504460D4639B1084602F06FFB024638
:1022400020462946FFF7B6FF204638BD38B50C4674
:102250009AB191B18168994202D80023237038BDA8
:10226000551EC91A8D4228BF0D46016820461944E3
:102270002A4602F083FB0023635538BD08B5FEF7FC
:10228000F1F8FEF7C7F900F031F8FAE708B5FFF703
:10229000B9FC08BD08B5FFF769FC08BD08B5FFF734
:1022A00091FC08BD08B5FFF763FD08BD08B5FFF751
:1022B000B7FC08BD08B50846FFF74EFD08BD00BFD6
:1022C00008B508461146FFF7C7FC08BD704700BFB8
:1022D000044B00221A714FF47A7199601A73024A02
:1022E0001A60704738A8FF1F784E000008B50F4BE2
:1022F0001B78CBB901220D4B1A70FFF783FC08B194
:10230000FFF7E4FF00F04AFB08B101F08BFB00F09F
:10231000F7FE08B101F028FC01F0C4F908B101F0A2
:10232000C5FC0022014B1A7008BD00BF48A8FF1F62
:1023300060223A4B1A70E12201331A70384B1B7835
:10234000082B10D1012203F1804303F56C331A608E
:10235000132334490B6001F5FF2101F2FC710A607F
:10236000314A13601FE00A2B0DD139222F4B1A601E
:1023700013232C490B6001F5FF2101F2FC710A6067
:10238000294A13600FE00C2B0CBF35223D22274B4E
:102390001A60122323490B6001F5FF2101F2FC7141
:1023A0000A60214A1360224B1B7833B10123214A72
:1023B000136002F50022136005E000231D4A13603C
:1023C00002F5002213601C4B1B78012B06D88023DA
:1023D0001A4A136002F5002213601AE0042B06D893
:1023E0008423164A136002F50022136011E0082BC3
:1023F00006D88523114A136002F50022136008E015
:10240000102B94BF862387230C4A136002F5002209
:10241000136001220A4B1A70704700BF004007404A
:102420007093FF1F0CB003400CB00B4008B003408A
:102430004AA8FF1F20B003407193FF1F24B0034040
:1024400049A8FF1F30B40023B0FBF2F402FB1404D0
:102450001D46092C94BF30343734E4B2CC54B0FB61
:10246000F2F008B10133EFE70D4400226A709342A5
:1024700007DD885CCC5C8C54C8540132013B9A4225
:10248000F7DB084630BC704710B50C46002802DB6D
:10249000FFF7D8FF10BD2D2301F8013B4042FFF7A5
:1024A000D1FF204610BD00BF254B1A6842F4806260
:1024B0001A600023234A1370234A1370234A1370AF
:1024C000234A1370234A1370234B1B7813B1152B27
:1024D00005D008E040F21332204B1A6003E040F2CE
:1024E00013321F4B1A601F4B1B78012B02D0052B98
:1024F00005D008E04FF451721B4B1A6003E04FF413
:1025000051721A4B1A60C0F34432194B1A70C0F35F
:1025100047125A7000F01F00987204229A7002212C
:10252000D9745A7588221A743C22DA704022114BF1
:102530001A704FF40052A3F229331A60704700BF9B
:1025400034800440D8A8FF1F51A8FF1FE0A8FF1F38
:10255000D9A8FF1F50A8FF1F94A8FF1F40A0044048
:1025600018C004407293FF1F44A004401CC00440E4
:1025700000A006402DE400E0164B9B7803F0EC032E
:1025800000F00302134310F0040F18BF43F01003D0
:10259000104A937000F00F03042B04D11346927974
:1025A00042F040029A710B4B5A7902F0EF0210F0A0
:1025B000100F18BF42F01002064B5A719B7903F0BE
:1025C000EF0310F0200F18BF43F01003014A93717E
:1025D000704700BF00A0064010B5144B1B6813F4F1
:1025E000806F21D0124B1B7813F0FF0F06D0104CD8
:1025F000FFF77CFE237813F0FF0FF9D14FF4005260
:102600000C4B1A6000230C4AD37040F203120B49A2
:102610000A6004310A600A4A13700A4A13700A4BAE
:102620001B680BB101221A7010BD00BF348004403A
:1026300050A8FF1F84E100E000A0064040A0044035
:10264000D8A8FF1F51A8FF1F4CA8FF1F10B50446B4
:10265000094A137813F0FF0FFBD120460121FEF742
:10266000BFFC20460021FEF797FC044B53F83420B2
:10267000034B1A6010BD00BF50A8FF1F584D00004B
:10268000DCA8FF1F10B40C4609B140F08000184BC5
:102690001B78984228D0174A126812F4806F21D014
:1026A00003F07F03012B02D0052B04D006E00022AB
:1026B000114B1A6002E00022104B1A60002C0CBF74
:1026C0004422602200F07F03012B02D0052B05D0AD
:1026D00008E042F44072084B1A6003E042F4407292
:1026E000064B1A60024B18705DF8044B704700BF30
:1026F0007293FF1F3480044044A004401CC0044077
:10270000114B1B7898421ED0104A126812F4806F49
:1027100017D013B1152B04D006E000220C4B1A6021
:1027200002E000220B4B1A6010B1152805D008E01A
:1027300040F21332064B1A6003E040F21332054BAD
:102740001A60014B1870704794A8FF1F3480044032
:1027500040A0044018C0044010B50D4B1B6813F492
:10276000806F12D021280CD80A4C0B4B53F8303014
:1027700023600121FEF734FC236800221A70012037
:1027800010BD0020034B186010BD002010BD00BF1D
:10279000348004404CA8FF1F584D0000114B1B68AB
:1027A00013F4806F1BD0122804D140F202320E4B7A
:1027B0001A600DE0142804D140F202320B4B1A606B
:1027C00006E00B4B5A7B02F0FE025A730020704762
:1027D000074B5A7B42F001025A73012070470020D8
:1027E000704700BF348004400CA0044014C0044073
:1027F00000A006402DE9F04107461F4B1B6813F46B
:10280000806F37D01D4B1B680BB101221A701C4B17
:102810001C780134402C28BF00241A4D1A4EDFF8D2
:102820006C8017E0FEF788FB40280FDC337913F04B
:10283000800F0FD02B780133402B28BF002318F8CE
:102840000320D2B2F271DBB22B7003E0FF2801DD6E
:10285000FFF74CFD2B78DBB29C42E3D0FFB20B4B71
:102860001F5501220A4B1A70E4B2054B1C70BC22A2
:10287000054BDA70BDE8F08134800440DCA8FF1F0E
:10288000E0A8FF1FD9A8FF1F00A0064054A8FF1F03
:1028900050A8FF1F2DE9F84F0746284B1B6813F47B
:1028A000806F49D0264B1B680BB101221A7007EBD1
:1028B000010B5F453DD2DFF89890224EDFF88C8007
:1028C000DFF890A099F800400134402C28BF002484
:1028D0003578EDB2A54220D1BC2388F80330FEF74D
:1028E0002BFB402811DC98F8043013F0800F10D037
:1028F00033780133402B28BF00231AF80320D2B2CB
:1029000088F80720DBB2337003E0FF2801DDFFF712
:10291000EDFC3378DBB29D42E1D017F8013B0AF8B9
:1029200004300122084B1A70E4B289F800405F4578
:10293000C8D1BC22054BDA70BDE8F88F3480044062
:10294000DCA8FF1FD9A8FF1F50A8FF1F00A006404A
:10295000E0A8FF1F54A8FF1F10B5064B1B7813F00B
:10296000FF0F06D0034CFFF7C1FC237813F0FF0FD5
:10297000F9D110BD50A8FF1F064B1B78DBB2064AE9
:102980001278D2B293422CBF3F3202F1FF32D01AFA
:10299000704700BFE0A8FF1FD9A8FF1F054B18789C
:1029A000C0B2054B1B78DBB2984238BF4030C01A2A
:1029B000704700BFD8A8FF1F51A8FF1F10B4184BC5
:1029C0001A78D2B2174B1B78DBB29A4218D0013377
:1029D0003F2B18D81449C85CC0B2DCB211490C7046
:1029E00012490968C9B19A4203D300E00023D31AFF
:1029F00001E04032D31A1A2B0FDC00230B700CE0DD
:102A00004FF0FF3009E0084B1878C0B20021054BA9
:102A10001970064B19680029E8D15DF8044B70471E
:102A2000D8A8FF1F51A8FF1F98A8FF1F4CA8FF1F81
:102A3000094B1A78D2B2094B1B78DBB29A4207D005
:102A40000133402B28BF0023054AD05CC0B2704739
:102A50004FF0FF30704700BFD8A8FF1F51A8FF1FDD
:102A600098A8FF1F0D4B1B6813F4806F14D00C4BFC
:102A7000DA7802F0CB02DA7040225A74DA7842F047
:102A80003402DA70074B1A78D2B2074B1A70074B30
:102A90001B680BB100221A70704700BF34800440DD
:102AA00000A0064051A8FF1FD8A8FF1F4CA8FF1F79
:102AB00070B43D4B1B7913F0300F33D072B63A4BE4
:102AC0009B7D03F0FF022BB9374BDA7940225A7411
:102AD00062B627E062B6354B1978C9B2344B1C7820
:102AE000E4B2314D334EEB79D8B24B1C402B28BFAA
:102AF0000023A3421CBFF0541946531E13F0FF02DB
:102B0000F1D1CAB2294B1A702B4B1B6853B1A142A9
:102B10002EBFC4EB0101C4F1400409192729C4BF29
:102B200001221A70204BDA78D2B212F0800F27D02F
:102B30001B7913F0800F23D0204B1C78E4B2204B7C
:102B40001B78DBB29C4210D017491E4D01E0A34216
:102B50000BD00133402B28BF00230879E85CC0B2BA
:102B6000C871087DC0B20728F1D9DBB214490B70D7
:102B70000D4B1B7913F0800F02D07C210A4BD970CA
:102B800012F0400F0ED0084B1B7913F0400F09D004
:102B900000220D4B1A700D4B1B6803B11A703C22BA
:102BA000014BDA7070BC704700A00640D8A8FF1F28
:102BB00051A8FF1F98A8FF1F4CA8FF1FE0A8FF1FE8
:102BC000D9A8FF1F54A8FF1F50A8FF1FDCA8FF1F94
:102BD000254B1A6842F400621A600023234A1370DE
:102BE000234A1370234A1370234A1370234A137025
:102BF000234B1B78092B02D01A2B05D008E040F29A
:102C00001332204B1A6003E040F213321E4B1A605D
:102C10001E4B1B780A2B02D01F2B05D008E04FF467
:102C200051721B4B1A6003E04FF45172194B1A603A
:102C3000C0F34432184B1A70C0F347125A7000F0B8
:102C40001F00987204229A700221D9745A75882242
:102C50001A743C22DA704022104B1A704FF4004272
:102C6000A3F22B331A6070473480044054A9FF1F2D
:102C7000E9A8FF1F5CA9FF1F55A9FF1FE8A8FF1FB8
:102C80007393FF1F0CB0044004D004407493FF1FE3
:102C900010B0044000D0044000B006402FE400E033
:102CA000164B9B7803F0EC0300F00302134310F083
:102CB000040F18BF43F01003104A937000F00F0385
:102CC000042B04D11346927942F040029A710B4BC7
:102CD0005A7902F0EF0210F0100F18BF42F0100204
:102CE000064B5A719B7903F0EF0310F0200F18BFC9
:102CF00043F01003014A9371704700BF00B00640D3
:102D000010B5224B1B6813F4006F3ED0204B1B788C
:102D100013F0FF0F06D01E4CFFF7E8FA237813F0EC
:102D2000FF0FF9D14FF400421A4B1A6000221A4BE0
:102D3000DA701A4B1B78092B02D01A2B05D008E049
:102D400040F20312164B1A6003E040F20312154BD7
:102D50001A60154B1B7803F07F030A2B02D01F2B40
:102D600005D008E040F20312104B1A6003E040F275
:102D700003120F4B1A6000230E4A13700E4A137091
:102D80000E4B1B680BB101221A7010BD3480044039
:102D9000E8A8FF1F84E100E000B006407393FF1F26
:102DA0000CB0044004D004407493FF1F10B00440E2
:102DB00000D0044054A9FF1FE9A8FF1FE4A8FF1F8B
:102DC00010B50446094A137813F0FF0FFBD12046D3
:102DD0000121FEF705F920460021FEF7DDF8044B3E
:102DE00053F83420034B1A6010BD00BFE8A8FF1F42
:102DF000584D000058A9FF1F10B40C4609B140F00F
:102E00008000184B1B78984228D0174A126812F499
:102E1000006F21D003F07F030A2B02D01F2B04D0B8
:102E200006E00022114B1A6002E00022104B1A60EB
:102E3000002C0CBF4422602200F07F030A2B02D03A
:102E40001F2B05D008E042F44072084B1A6003E0E3
:102E500042F44072064B1A60024B18705DF8044B46
:102E6000704700BF7493FF1F3480044010B00440CB
:102E700000D00440124B1B78984220D0114A1268AF
:102E800012F4006F19D0092B02D01A2B04D006E0DF
:102E900000220D4B1A6002E000220C4B1A60092838
:102EA00002D01A2805D008E040F21332064B1A600F
:102EB00003E040F21332054B1A60014B1870704763
:102EC0007393FF1F348004400CB0044004D00440CE
:102ED00010B50D4B1B6813F4006F12D021280CD8CD
:102EE0000A4C0B4B53F8303023600121FEF778F881
:102EF000236800221A70012010BD0020034B1860C7
:102F000010BD002010BD00BF34800440E4A8FF1FA6
:102F1000584D00000D4B1B6813F4006F13D0172899
:102F20000AD140F202320A4B1A600A4B5A7B42F035
:102F300001025A7301207047064B5A7B02F0FE02D1
:102F40005A73002070470020704700BF348004404F
:102F500008B0044000B006402DE9F04107461F4B81
:102F60001B6813F4006F37D01D4B1B680BB1012297
:102F70001A701C4B1C780134282C28BF00241A4DD1
:102F80001A4EDFF86C8017E0FDF7D6FF40280FDC03
:102F9000337913F0800F0FD02B780133282B28BF03
:102FA000002318F80320D2B2F271DBB22B7003E0D9
:102FB000FF2801DDFFF79AF92B78DBB29C42E3D0C2
:102FC000FFB20B4B1F5501220A4B1A70E4B2054B9E
:102FD0001C70BC22054BDA70BDE8F08134800440DF
:102FE00058A9FF1F5CA9FF1F55A9FF1F00B006408D
:102FF000ECA8FF1FE8A8FF1F2DE9F84F0746284B54
:103000001B6813F4006F49D0264B1B680BB10122DB
:103010001A7007EB010B5F453DD2DFF89890224E06
:10302000DFF88C80DFF890A099F800400134282C5C
:1030300028BF00243578EDB2A54220D1BC2388F802
:103040000330FDF779FF402811DC98F8043013F0C5
:10305000800F10D033780133282B28BF00231AF8B3
:103060000320D2B288F80720DBB2337003E0FF28D8
:1030700001DDFFF73BF93378DBB29D42E1D017F871
:10308000013B0AF804300122084B1A70E4B289F8B7
:1030900000405F45C8D1BC22054BDA70BDE8F88F0F
:1030A0003480044058A9FF1F55A9FF1FE8A8FF1F3F
:1030B00000B006405CA9FF1FECA8FF1F10B5064B2F
:1030C0001B7813F0FF0F06D0034CFFF70FF923789E
:1030D00013F0FF0FF9D110BDE8A8FF1F064B1B78B6
:1030E000DBB2064A1278D2B293422CBF273202F1E9
:1030F000FF32D01A704700BF5CA9FF1F55A9FF1F00
:10310000054B1878C0B2054B1B78DBB2984238BF2C
:103110004030C01A704700BF54A9FF1FE9A8FF1F25
:1031200010B4184B1A78D2B2174B1B78DBB29A4204
:1031300018D001333F2B18D81449C85CC0B2DCB298
:1031400011490C7012490968C9B19A4203D300E0D1
:103150000023D31A01E04032D31A1A2B0FDC0023CC
:103160000B700CE04FF0FF3009E0084B1878C0B24C
:103170000021054B1970064B19680029E8D15DF84C
:10318000044B704754A9FF1FE9A8FF1F14A9FF1F94
:10319000E4A8FF1F094B1A78D2B2094B1B78DBB2A7
:1031A0009A4207D00133402B28BF0023054AD05C48
:1031B000C0B270474FF0FF30704700BF54A9FF1FE7
:1031C000E9A8FF1F14A9FF1F0D4B1B6813F4006F24
:1031D00014D00C4BDA7802F0CB02DA7040225A7429
:1031E000DA7842F03402DA70074B1A78D2B2074B21
:1031F0001A70074B1B680BB100221A70704700BF92
:103200003480044000B00640E9A8FF1F54A9FF1F06
:10321000E4A8FF1F70B43D4B1B7913F0300F33D07F
:1032200072B63A4B9B7D03F0FF022BB9374BDA792C
:1032300040225A7462B627E062B6354B1978C9B29B
:10324000344B1C78E4B2314D334EEB79D8B24B1C81
:10325000402B28BF0023A3421CBFF0541946531E25
:1032600013F0FF02F1D1CAB2294B1A702B4B1B6825
:1032700053B1A1422EBFC4EB0101C4F140040919AE
:103280002729C4BF01221A70204BDA78D2B212F07B
:10329000800F27D01B7913F0800F23D0204B1C7890
:1032A000E4B2204B1B78DBB29C4210D017491E4D74
:1032B00001E0A3420BD00133282B28BF002308795B
:1032C000E85CC0B2C871087DC0B20728F1D9DBB292
:1032D00014490B700D4B1B7913F0800F02D07C2129
:1032E0000A4BD97012F0400F0ED0084B1B7913F027
:1032F000400F09D000220D4B1A700D4B1B6803B113
:103300001A703C22014BDA7070BC704700B0064066
:1033100054A9FF1FE9A8FF1F14A9FF1FE4A8FF1F5E
:103320005CA9FF1F55A9FF1FECA8FF1FE8A8FF1FFE
:1033300058A9FF1F174B1A6842F480521A600023E5
:10334000154A1370154A1370154A1370154A1370F5
:10335000154A137040F21331144A11604FF4517141
:1033600004321160C0F34431114A1170C0F34711A7
:10337000517000F01F009072937013742C23D3705F
:1033800040220C4B1A704FF40032A3F22D331A6016
:10339000704700BF34800440D0A9FF1F65A9FF1FFC
:1033A000D8A9FF1FD1A9FF1F64A9FF1F08C00440AF
:1033B00000C0064031E400E0164B9B7803F0EC03BC
:1033C00000F00302134310F0040F18BF43F0100382
:1033D000104A937000F00F03042B04D11346927926
:1033E00042F040029A710B4B5A7902F0EF0210F052
:1033F000100F18BF42F01002064B5A719B7903F070
:10340000EF0310F0200F18BF43F01003014A93712F
:10341000704700BF00C0064010B5144B1B6813F482
:10342000805F21D0124B1B7813F0FF0F06D0104C99
:10343000FEF75CFF237813F0FF0FF9D14FF4003251
:103440000C4B1A6000230C4AD37040F203120B4954
:103450000A6004310A600A4A13700A4A13700A4B60
:103460001B680BB101221A7010BD00BF34800440EC
:1034700064A9FF1F84E100E000C0064008C00440CA
:10348000D0A9FF1F65A9FF1F60A9FF1F10B5044643
:10349000094A137813F0FF0FFBD120460121FDF7F5
:1034A0009FFD20460021FDF777FD044B53F83420A3
:1034B000034B1A6010BD00BF64A9FF1F584D0000E8
:1034C000D4A9FF1F10B40C4609B140F08000104B86
:1034D0001B78984219D00F4A126812F4805F12D0FC
:1034E00003F07F03082B02D100220B4B1A60002C43
:1034F0000CBF4422602200F07F03082B03D142F46A
:103500004072054B1A60024B18705DF8044B70470F
:103510007593FF1F348004400CC00440704700BF07
:1035200010B50D4B1B6813F4805F12D021280CD806
:103530000A4C0B4B53F8303023600121FDF750FD4E
:10354000236800221A70012010BD0020034B186070
:1035500010BD002010BD00BF3480044060A9FF1FD3
:10356000584D00000D4B1B6813F4805F13D00E28DC
:103570000AD140F202320A4B1A600A4B5A7B42F0DF
:1035800001025A7301207047064B5A7B02F0FE027B
:103590005A73002070470020704700BF34800440F9
:1035A00004C0044000C006402DE9F04107461F4B0F
:1035B0001B6813F4805F37D01D4B1B680BB10122D1
:1035C0001A701C4B1C780134282C28BF00241A4D7B
:1035D0001A4EDFF86C8017E0FDF7AEFC40280FDCD8
:1035E000337913F0800F0FD02B780133282B28BFAD
:1035F000002318F80320D2B2F271DBB22B7003E083
:10360000FF2801DDFEF772FE2B78DBB29C42E3D08F
:10361000FFB20B4B1F5501220A4B1A70E4B2054B47
:103620001C70AC22054BDA70BDE8F0813480044098
:10363000D4A9FF1FD8A9FF1FD1A9FF1F00C00640B2
:1036400068A9FF1F64A9FF1F38B505460C4629B1BC
:1036500015F8010BFFF7A8FF013CF9D138BD00BFF9
:1036600010B5064B1B7813F0FF0F06D0034CFEF786
:103670003DFE237813F0FF0FF9D110BD64A9FF1FA1
:10368000064B1B78DBB2064A1278D2B293422CBFAB
:10369000273202F1FF32D01A704700BFD8A9FF1FAE
:1036A000D1A9FF1F054B1878C0B2054B1B78DBB2C0
:1036B000984238BF4030C01A704700BFD0A9FF1FE2
:1036C00065A9FF1F10B4184B1A78D2B2174B1B789C
:1036D000DBB29A4218D001333F2B18D81449C85C8A
:1036E000C0B2DCB211490C7012490968C9B19A42E2
:1036F00003D300E00023D31A01E04032D31A1A2B7F
:103700000FDC00230B700CE04FF0FF3009E0084B9A
:103710001878C0B20021054B1970064B19680029B2
:10372000E8D15DF8044B7047D0A9FF1F65A9FF1FC2
:1037300090A9FF1F60A9FF1F094B1A78D2B2094B4D
:103740001B78DBB29A4207D00133402B28BF0023FD
:10375000054AD05CC0B270474FF0FF30704700BFE1
:10376000D0A9FF1F65A9FF1F90A9FF1F054B1A785D
:10377000D2B2054B1A70054B1B680BB100221A70B0
:10378000704700BF65A9FF1FD0A9FF1F60A9FF1FD9
:103790002F4B1B7913F0200F23D02D4BDB79D9B29F
:1037A0002C4B1B780133402B28BF00232A4A127868
:1037B000D2B29A4204D0294AD154D9B2254A1170C2
:1037C000274A116869B1274A1278D2B293422EBFB4
:1037D000C2EB0303C2F140029B18272BC4BF012395
:1037E0000B701B4BDB78DBB213F0800F1CD0184A38
:1037F000127912F0800F17D01B4A1178C9B2194AFA
:103800001278D2B2914203D16C21114AD1700BE0EF
:103810000132282A28BF00221449885CC0B20C4912
:10382000C871D2B20F490A7013F0400F0ED0084B86
:103830001B7913F0400F09D000220D4B1A700D4B6D
:103840001B6803B11A702C22014BDA70704700BF5D
:1038500000C00640D0A9FF1F65A9FF1F90A9FF1F48
:1038600060A9FF1FD1A9FF1FD8A9FF1F68A9FF1FCB
:1038700064A9FF1FD4A9FF1F00B585B072B61B4B0A
:1038800070221A7041211A4A11700F21013A1170E9
:1038900080221A701A46137813F0800FFBD0154B54
:1038A000186862B6144B98429CBF00EB8000400041
:1038B00001A90A22FEF7C6FD9DF804307BB908E095
:1038C00001A9595C31B19180023201330A2BF7D141
:1038D00000E0002301335B00084A137003E0074A4D
:1038E00053800123ECE705B05DF804FB00000240C3
:1038F00007000240080002407F9698000494FF1FD2
:1039000008B503681B68C9B2984708BD08B50368C5
:103910001B68C9B2984708BD08B503681B68C9B2DF
:10392000984708BD08B503681B68C9B2984708BD29
:1039300008B54B0803F1376000F5D830B0FBF1F063
:10394000FEF7B2FD08BD00BF10B514464B0803F1E9
:10395000376000F5D830B0FBF1F0FEF7A5FD20464A
:10396000FEF70AFE10BD00BF08B5FEF735FE08BD24
:1039700008B50846FEF76AFE08BD00BF08B5084650
:10398000FEF7BEFE08BD00BF08B508461146FEF7AB
:1039900079FE08BD08B50846FEF7DEFE003018BF08
:1039A000012008BD08B50846FEF7F8FE003018BF34
:1039B000012008BD08B5FEF7F1FF08BD08B5FFF707
:1039C00037F808BD08B5FEF7F9FF08BD08B5FEF7E2
:1039D000C3FF08BD08B5FFF745F808BD08B5FEF7F9
:1039E000CBFF08BD08B50846FEF704FF012008BD5F
:1039F00008B50846FEF7FEFE012008BD10B51446C6
:103A000008461146FEF746FF204610BD38B50D4664
:103A1000084600F083FF044628462146FEF73AFF99
:103A2000204638BD704700BF044B00221A714FF486
:103A30007A7199601A73024A1A607047DCA9FF1FF5
:103A4000F84E000008B503681B68C9B2984708BD66
:103A500008B503681B68C9B2984708BD08B5036874
:103A60001B68C9B2984708BD08B503681B68C9B28E
:103A7000984708BD08B54B0803F1376000F5D8300A
:103A8000B0FBF1F0FFF7A4F808BD00BF10B5144675
:103A90004B0803F1376000F5D830B0FBF1F0FFF7C9
:103AA00097F82046FFF7FCF810BD00BF08B5FFF7F8
:103AB00027F908BD08B50846FFF782F908BD00BF21
:103AC00008B50846FFF7D6F908BD00BF08B5084697
:103AD0001146FFF791F908BD08B50846FFF7F8F958
:103AE000003018BF012008BD08B50846FFF712FADC
:103AF000003018BF012008BD08B5FFF701FB08BD65
:103B000008B5FFF747FB08BD08B5FFF709FB08BD7F
:103B100008B5FFF7D3FA08BD08B5FFF755FB08BD98
:103B200008B5FFF7DBFA08BD08B50846FFF714FA39
:103B3000012008BD08B50846FFF70EFA012008BDB0
:103B400010B5144608461146FFF756FA204610BD38
:103B500038B50D46084600F0E1FE044628462146E9
:103B6000FFF74AFA204638BD704700BF044B0022D9
:103B70001A714FF47A7199601A73024A1A60704789
:103B8000ECA9FF1F584F000008B503681B68C9B2B5
:103B9000984708BD08B503681B68C9B2984708BDB7
:103BA00008B503681B68C9B2984708BD08B5036823
:103BB0001B68C9B2984708BD08B54B0803F1B76048
:103BC00000F55840B0FBF1F0FFF7B4FB08BD00BFB3
:103BD00010B514464B0803F1B76000F55840B0FB30
:103BE000F1F0FFF7A7FB2046FFF7E6FB10BD00BF93
:103BF00008B5FFF711FC08BD08B50846FFF746FCFD
:103C000008BD00BF08B50846FFF788FC08BD00BF27
:103C100008B508461146FFF755FC08BD08B508462B
:103C2000FFF77EFC003018BF012008BD08B508462C
:103C3000FFF798FC003018BF012008BD08B5FFF75A
:103C400031FD08BD08B5FFF777FD08BD08B5FFF7E2
:103C500039FD08BD08B5FFF703FD08BD08B5FFF73E
:103C600085FD08BD08B5FFF70BFD08BD08B5084682
:103C7000FFF79AFC012008BD08B50846FFF794FC41
:103C8000012008BD10B5144608461146FFF7DCFCBC
:103C9000204610BD38B50D46084600F03FFE0446EC
:103CA00028462146FFF7D0FC204638BD704700BFAC
:103CB000044B00221A714FF47A7199601A73024A08
:103CC0001A607047FCA9FF1FB84F00000346084662
:103CD000194600F039B800BF024B0A460146186881
:103CE00000F002B84898FF1F10B502FB01F100F088
:103CF0006DF8044668B150F8042C22F00302043A2F
:103D0000242A18D8132A06D8034600221A605A60BB
:103D10009A60204610BD00231B2A036043600FD920
:103D2000242A8360C36005BF0361436100F110036F
:103D300000F11803E9E7002100F044FB204610BD24
:103D400000F10803E1E700BF10B40C46134601463A
:103D5000224602205DF8044B00F042BE70B50F4EC3
:103D60000F4D761BB61007D0043D0024013455F8E2
:103D7000043F9847A642F9D10A4E0B4D761B01F03D
:103D80004BF9B61008D0043D0024013455F8043F27
:103D90009847A642F9D170BD70BD00BF2450000005
:103DA000245000004450000024500000024B014603
:103DB000186800F00BB800BF4898FF1F024B01467F
:103DC000186800F0D7BE00BF4898FF1F2DE9F04FDC
:103DD00001F10B05162D83B0064627D935F00705EE
:103DE00027D4A94225D8304600F036FBB5F5FC7F34
:103DF00026D2C14F4FEAD50C07EBCC03DC689C42BE
:103E000000F0D2816368E268A16823F003032344D1
:103E100030465D68CA6045F0010591605D6000F064
:103E20001DFB0834204603B0BDE8F08F1025A942E1
:103E3000D9D900240C232046336003B0BDE8F08FAD
:103E40005FEA552C00F08A80BCF1040F00F260811B
:103E50004FEA951C0CF1380C4FEA4C01A64F07EBCA
:103E60008101CC68A14205D10CE0002B7ADAE4682C
:103E7000A14207D0626822F00302531B0F2BF4DD2E
:103E80000CF1FF3C0CF1010C9B4B3C6903F1080E5B
:103E9000744500F07E81616821F003014A1B0F2AFE
:103EA00000F36481002AC3F814E0C3F810E06ADA72
:103EB000B1F5007F80F03A81C90803EBC1004FEAF9
:103EC000A1085A688168A1604FF0010909FA08F851
:103ED00048EA0202E0605A608460CC604FEAAC03BA
:103EE0000120984090425BD8024206D12CF0030C8E
:103EF000400002420CF1040CFAD007EBCC08444617
:103F0000E146E3689C4207D145E1002A80F25681F0
:103F1000DB689C4200F03F81596821F003014A1B95
:103F20000F2AF2DD1C46D3F80CC054F8088F59193B
:103F300045F0010942F00105C3F804903046C8F885
:103F40000CC0CCF8088079613961C1F80CE0C1F887
:103F500008E04D608A5000F081FA63E77E214FF05F
:103F60003F0C7BE72244E3685068A16840F00105FC
:103F7000CB6030469960556000F070FA08342046F6
:103F800003B0BDE8F08F214430464B6843F0010395
:103F90004B6000F063FA0834204603B0BDE8F08FB0
:103FA000BC68636823F00309A94504D3C5EB090382
:103FB0000F2B00F39180514B514A1968136801335C
:103FC00005EB010A04EB090B00F061810AF5805A48
:103FD0000AF10F0A2AF47F6A2AF00F0A3046514686
:103FE000019200F02BFCB0F1FF3F8046019A00F0F7
:103FF0000081834500F2FA80DFF810C1DCF8003060
:10400000C3455344CCF8003000F04A8112683C4963
:1040100001321BBFCBEB080B5B44C1F80080CCF82E
:10402000003018F0070300F01381C3F10802C3F554
:10403000805390440833C244CAF30B0ACAEB030A04
:1040400051463046CDF804C000F0F8FB431CDDF8C3
:1040500004C000F03581C8EB0002524442F0010276
:10406000DCF80030C7F808805344BC42C8F804208C
:10407000CCF80030DFF894A015D0B9F10F0F40F262
:10408000EA806168A9F10C0222F0070201F0010E3A
:10409000A118052042EA0E0E0F2AC4F804E0486079
:1040A000886000F21181174ABC6811688B4288BF92
:1040B0001360154A11688B4288BF1360626822F052
:1040C00003029542C5EB020301D80F2B04DC3046F6
:1040D00000F0C4F90024A5E6621943F0010345F09D
:1040E000010565603046BA60536000F0B7F90834E6
:1040F000204603B0BDE8F08F4C98FF1F14AAFF1FA5
:10410000589CFF1F10AAFF1F0CAAFF1F18AAFF1F11
:10411000BCF1140F61D9BCF1540F00F28F804FEA4B
:10412000153C0CF16E0C4FEA4C0197E64B0A042B40
:1041300058D9142B00F2AE8003F15B02500007EB5C
:104140008000DFF8BC818368834200F08A805A686F
:1041500022F00302914202D29B689842F7D1D968BB
:104160007A68E160A3608C60DC60B7E6611942F0B8
:10417000010745F001056560304659611961C1F8D4
:104180000CE0C1F808E04F608A50083400F066F98E
:1041900048E65A68A2E609F1010919F0030F04F193
:1041A00008047FF4AEAE2DE004F108036469A34275
:1041B00008BF0CF1020C3FF467AE23E619441C461D
:1041C0004868DB6854F8082F40F001054D60304620
:1041D000D3609A6000F042F924E60CF15B0C4FEAE0
:1041E0004C013BE68A0938325000A8E7BC423FF454
:1041F00003AFBC68626822F0030262E7D8F800806F
:1042000098457BD11CF0030FA8F108030CF1FF3C8B
:10421000F4D17B6823EA00037B60400098423FF6BC
:10422000BFAE00283FF4BCAE0342CC467FF465AE7F
:10423000400003420CF1040CFAD05EE6BCF5AA7F04
:104240001AD84FEAD53C0CF1770C4FEA4C0105E641
:104250004FF48053EFE60123C8F8043044460022AF
:104260002FE791100120D8F8042000FA01F10A4349
:10427000C8F80420194674E740F254539C451BD8F3
:104280004FEA954C0CF17C0C4FEA4C01E6E50AF143
:10429000100AA3E6542B1FD80A0B6E3250004EE7CB
:1042A000CBF30B0100297FF4B1AE0AEB0901BA6828
:1042B00041F001015160F6E6FC214FF07E0CCDE5A6
:1042C00001224FF0000ACBE604F10801304600F06D
:1042D00051FCDAF80030E6E6B3F5AA7F03D8CA0B42
:1042E000773250002BE740F25452934203D88A0CA5
:1042F0007C32500023E7FC207E2220E77B688CE79D
:104300004C98FF1F8842F0B410D98C18A0420DD2EF
:104310008518531E42B121462A4611F8014D02F874
:10432000014D013B5C1CF8D1F0BC70470F2A3FD90E
:1043300040EA01039B073FD1A2F110073F0900EBC0
:10434000071610360C46034625681D6065685D60DB
:10435000A5689D60E568DD601033B34204F1100488
:10436000F2D17B1C02F00F0C1B01BCF1030F1944AE
:10437000034423D90E461D466446043C56F8047B8C
:1043800045F8047B032CF8D8ACF1040424F00304B2
:10439000043402F0030223442144002AC4D01A4406
:1043A00011F8014B03F8014B9342F9D1F0BC70476F
:1043B0000346002AF3D1B7E70346F0E76246002A36
:1043C000EDD1B1E7F0B4840743D0541E002A3ED0AB
:1043D000CDB2034603E0621E002C38D0144603F829
:1043E000015B9A07F7D1032C2AD9CDB245EA0525FE
:1043F0000F2C45EA054515D9A4F110073F0903F133
:10440000100606EB07161A46156055609560D560D4
:104410001032B242F8D104F00F040137032C03EB41
:1044200007130DD91E462246043A032A46F8045BB8
:10443000FAD8221F22F003020432134404F00304CA
:104440002CB1C9B21C4403F8011BA342FBD1F0BC40
:10445000704714460346C6E7704700BF704700BF69
:10446000024B0A460146186800F002B84898FF1F40
:104470002DE9F04F0C4683B090468146002900F0AC
:10448000E280FFF7E9FF08F10B0654F8043C162E12
:1044900023F00305A4F108074BD810210E46B045C0
:1044A0004CD88D4278DADFF890B3DBF808E0781961
:1044B000864500F0CE80426822F0010C8444DCF88E
:1044C00004C01CF0010F7AD000221046DB0700F177
:1044D000928054F8083CC3EB070ADAF8043023F062
:1044E00003032B4488B3704500F0ED8002EB030E0C
:1044F0008E452ADBC36882685746D3609A6057F8B6
:10450000081FDAF80C30CB602A1F242A996000F2C9
:104510002681132A40F2B3802368CAF80830636802
:10452000CAF80C301B2A00F2308108340AF110035B
:10453000A6E026F00706002E3146B0DA0C23002054
:10454000C9F8003003B0BDE8F08F8B4253DB57460B
:10455000DAF80C1057F8080F2A1F242AC160886067
:1045600000F20981132A40F204812168CAF8081078
:104570006168CAF80C101B2A00F21C8108340AF189
:1045800010022168116061685160A16891601D4648
:10459000DAF804303C465746AA1B0F2A03F0010301
:1045A00019D82B433D447B606B6843F001036B607B
:1045B0004846FFF753FF204603B0BDE8F08F22F0D6
:1045C000030202EB050C8C4580DBC26881686546FE
:1045D000CA609160E0E7B91942F001001E430A4445
:1045E0007E604860536843F00103083153604846D9
:1045F00000F0C0FADCE741464846FFF7E7FB80469B
:10460000D0B154F8043C23F001023A44A0F108016F
:10461000914200F09E802A1F242A50D8132A23D8C2
:1046200003462246116819605168596092689A6081
:104630002146484600F09EFA4846FFF70FFF4046E5
:1046400003B0BDE8F08F114603B0BDE8F04FFFF7AF
:10465000BDBBDEF8042022F00302501906F1100C55
:10466000604519DA704631E7236803606368436088
:104670001B2A63D800F1080304F10802D2E73B4685
:1046800022681A6062685A60A2689A603C46754661
:10469000DAF8043057467FE73744831B43F00103C1
:1046A000CBF808707B6054F8043C03F001031E4310
:1046B000484644F8046CFFF7D1FE20467CE72146CB
:1046C000FFF720FEB4E702EB030C06F1100294455D
:1046D000FFF63BAF5746DAF80C3057F8081F2A1F91
:1046E000242ACB60996000F28780132A78D9236846
:1046F000CAF808306368CAF80C301B2A00F28580BB
:1047000008340AF1100322681A6062685A60A268CD
:104710009A600AEB0603C6EB0C0242F00102CBF8EA
:1047200008305A60DAF8043003F001031E434846AB
:10473000CAF80460FFF792FE38463DE7A36883603D
:10474000E368C360242A2CD000F1100304F11002A6
:1047500068E750F8042C22F0030215441CE72146B8
:10476000384675463C46FFF7CDFD5746DAF804302B
:1047700012E73A4605E7214638461D463C46FFF714
:10478000C1FD5746DAF8043006E7A368CAF81030CE
:10479000E368CAF81430242A18D010340AF1180338
:1047A0006EE7236903616369436104F1180200F154
:1047B000180337E7A168CAF81010E168CAF81410A6
:1047C000242A0FD010340AF11802DAE62369CAF855
:1047D00018306369CAF81C3018340AF120034FE717
:1047E0003B4690E72269CAF818206269CAF81C2083
:1047F00018340AF12002C4E621463846CDF804C038
:10480000FFF780FDDDF804C083E7A368CAF8103025
:10481000E368CAF81430242A03D010340AF11803CC
:1048200071E72369CAF818306369CAF81C30183474
:104830000AF1200367E700BF4C98FF1F38B5074C0B
:104840000023054608462360FCF76EFB431C00D09E
:1048500038BD2368002BFBD02B6038BD54AAFF1F46
:1048600080EA0102844612F0030F4FD111F0030FCA
:1048700032D14DF8044D11F0040F51F8043B0BD028
:10488000A3F101329A4312F0803F04BF4CF8043B7D
:1048900051F8043B16D100BF51F8044BA3F101328B
:1048A0009A4312F0803FA4F101320BD14CF8043B43
:1048B000A24312F0803F04BF51F8043B4CF8044B74
:1048C000EAD023460CF8013B13F0FF0F4FEA3323E5
:1048D000F8D15DF8044B704711F0010F06D011F8C4
:1048E000012B0CF8012B002A08BF704711F0020FB2
:1048F000BFD031F8022B12F0FF0F16BF2CF8022B9D
:104900008CF8002012F47F4FB3D1704711F8012BBF
:104910000CF8012B002AF9D1704700BF20F00301E9
:1049200010F00300C0F1000051F8043B00F1040C4A
:104930004FEACC0C6FF000021CBF22FA0CF21343BA
:104940004FF0010C4CEA0C2C4CEA0C4CA3EB0C0283
:1049500022EA030212EACC1204BF51F8043B0430ED
:10496000F4D013F0FF0F1FBF013013F47F4F01305D
:1049700013F47F0F18BF0130704700BF40EA0103F6
:104980009B0770B42AD1032A28D90C460346214636
:1049900054F8045BA5F1013626EA050616F0803FBF
:1049A00005D1043A032A43F8045B2146EFD89AB1B3
:1049B0000C781C70013A01333CB16AB111F8014F17
:1049C00003F8014B013A002CF7D12AB11A44002117
:1049D00003F8011B9342FBD170BC70470346E6E726
:1049E000F0B5274C2668D6F8484185B00746002C1C
:1049F00041D065681F2D1EDD224818B94FF0FF30E9
:104A000005B0F0BD4FF4C870039102920193FFF717
:104A1000CDF90399029A019B04460028EED0D6F8FE
:104A200048512560002060600546C6F84841C4F83A
:104A30008801C4F88C013FB9AB1C002001356560CA
:104A400044F8231005B0F0BD04EB85004FF0010CD5
:104A5000C0F88820D4F888610CFA05F21643022FBA
:104A6000C4F88861C0F80831E6D1D4F88C311A4313
:104A7000C4F88C21E0E706F5A674C6F84841B8E70B
:104A800014500000AD3D0000024B13B1024800F08D
:104A900005B8704700000000A94A00000146002048
:104AA00002460346FFF79CBF38B5094D094C641B0D
:104AB000A41018BF05EB840505D0013C55F8043D52
:104AC0009847002CF9D1BDE8384000F0BBBA00BFD0
:104AD0000000000000000000F8B5234D0F4604461A
:104AE000FFF7BAFCAB685E6826F00306F11B01F61F
:104AF000EF7121F47F6121F00F01A1F58057B7F527
:104B0000805F07DB20460021FFF798FEAB68334447
:104B1000984204D02046FFF7A1FC0020F8BD2046B3
:104B20007942FFF78BFE01300DD0104BAA6819684F
:104B3000F61B46F001062046C91B56601960FFF7B8
:104B40008DFC0120F8BD20460021FFF777FEAB6801
:104B5000C21A0F2ADEDD064D04492D6842F001021B
:104B6000401B5A600860D5E74C98FF1F18AAFF1F2A
:104B7000589CFF1F2DE9F0410D460646002955D0EF
:104B8000FFF76AFC55F8041CDFF874C121F001033B
:104B9000A5F10804E218DCF808005768904227F0F5
:104BA000030769D011F00101576032D00021D019FC
:104BB0004068C00706D43B44906800294ED0D268B4
:104BC000C260906043F001026260E350E1B9B3F566
:104BD000007F2DD35A0A042A6AD898093830410038
:104BE0000CEB810C4649DCF80820624566D0516820
:104BF00021F003018B4202D292689445F7D1D36829
:104C0000E360A2609C60D4603046BDE8F041FFF7ED
:104C100025BC55F8085C641B0CF10808A0684045E9
:104C20002B4443D0E568C560A860C0E7BDE8F081CB
:104C3000DB080CEBC3020125DCF804009168A160DD
:104C40009B1005FA03F31843E260CCF8040094606B
:104C50003046CC60BDE8F041FFF700BC294DA842CA
:104C6000ADD143F00102CCF81440CCF81040E06024
:104C7000A0606260E350C7E71F44CB0707D455F834
:104C8000083CE41A1F44A268E368D3609A601E4B94
:104C90001B6847F001029F426260CCF80840B3D322
:104CA0001A4B30461968FFF717FFADE701217EE781
:104CB000142A0CD802F15B00410091E74B68801088
:104CC000012505FA00F003434B60134698E7542A88
:104CD00003D8180B6E30410082E7B2F5AA7F03D8E3
:104CE000D80B773041007BE740F254518A4203D819
:104CF000980C7C30410073E7FC217E2070E700BFF8
:104D00004C98FF1F5498FF1F549CFF1F14AAFF1FAD
:104D100030726E6400000000523A000020473A00F2
:104D200020423A0030726E6473686F7700000000B2
:104D300030726E646661696C646976627933000012
:104D40007263766E657700007263766C656E000044
:104D500072637674797065004008FE4340A0044099
:104D60004408FE4344A004400018FE4300C0044031
:104D70003000FE43309004403400FE433490044041
:104D80001C18FE431CC004401018FE4310C0044011
:104D90000818FE4308C004400C18FE430CC0044031
:104DA0000C10FE430CB004401010FE4310B0044041
:104DB0001810FE4318B004401C10FE431CB0044001
:104DC0001410FE4314B004400418FE4304C0044011
:104DD0000010FE4300B004400008FE4300A0044061
:104DE0000408FE4304A004400C08FE430CA0044049
:104DF0000808FE4308A004401418FE4314C00440F1
:104E00001818FE4318C004400410FE4304B00440C8
:104E10000810FE4308B004401400FE431490044000
:104E20004C08FE434CA004400420FE4304D0044040
:104E30002410FE4324B004402010FE4320B0044060
:104E40002810FE4328B004402C10FE432CB0044030
:104E50000020FE4300D004404808FE4348A0044020
:104E60001000FE43109004400D0A0000FFFFFFFFFA
:104E70000000000000000000B5220000C122000078
:104E80008D220000952200009D220000A522000036
:104E9000AD220000000000000015191500010000FF
:104EA0007893FF1F1200000000020000A493FF1F70
:104EB00043000000000300000094FF1F00000000FA
:104EC000010309048C93FF1F000000000203090482
:104ED000E893FF1F00000000030309040494FF1F70
:104EE00000000000000000000000000000000000C2
:104EF0000000000000000000E5390000FD3900005E
:104F0000B5390000C5390000BD390000CD390000B9
:104F10003139000049390000693900007139000059
:104F20007D3900008939000095390000A53900005D
:104F3000D5390000DD390000013900000D390000CD
:104F400019390000253900000D3A0000F139000040
:104F50000000000000000000293B0000413B000071
:104F6000F93A0000093B0000013B0000113B000042
:104F7000753A00008D3A0000AD3A0000B53A0000E5
:104F8000C13A0000CD3A0000D93A0000E93A0000E9
:104F9000193B0000213B0000453A0000513A000057
:104FA0005D3A0000693A0000513B0000353B0000CB
:104FB00000000000000000006D3C0000853C000087
:104FC0003D3C00004D3C0000453C0000553C0000CD
:104FD000B93B0000D13B0000F13B0000F93B000071
:104FE000053C0000113C00001D3C00002D3C000071
:104FF0005D3C0000653C0000893B0000953B0000E3
:10500000A13B0000AD3B0000953C0000793C000056
:10501000430000002094FF1FF8B500BFF8BC08BC97
:105020009E467047894A000035040000950700003D
:10503000390D0000D1220000293A00006D3B00002C
:04504000B13C00007F
:04504400F8B500BFFC
:1050480000000000C8FF000058AAFF1FFFFFFFFF75
:105058000A0401090A0800001201010102000040C7
:10506800C016830400020102030100001803540063
:10507800650065006E0073007900640075006900C2
:105088006E006F0009024300020100C032090400EB
:10509800000102020100052400100105240101019C
:1050A80004240206052406000107058203100040B7
:1050B80009040100020A000000070503024000007D
:1050C8000705840240000000160355005300420003
:1050D8002000530065007200690061006C00000048
:1050E800040309040C030000000000000000000095
:1050F80000000000000000000000000000000000A8
:10510800000000000C97FF1F7497FF1FDC97FF1F1C
:105118000000000000000000000000000000000087
:105128000000000000000000000000000000000077
:105138000000000010500000000000000000000007
:105148000000000000000000000000000000000057
:105158000000000000000000000000000000000047
:105168000000000000000000000000000000000037
:105178000000000000000000000000000000000027
:105188000000000000000000000000000000000017
:105198000000000000000000000000000000000007
:1051A80000000000000000000100000000000000F6
:1051B8000E33CDAB34126DE6ECDE05000B000000BB
:1051C80000000000000000000000000000000000D7
:1051D80000000000000000000000000000000000C7
:1051E80000000000000000000000000000000000B7
:1051F80000000000000000000000000000000000A7
:1055280000000000000000002094FF1F00000000A1
:10553800000000004C98FF1F4C98FF1F5498FF1F55
:105548005498FF1F5C98FF1F5C98FF1F6498FF1F0B
:105558006498FF1F6C98FF1F6C98FF1F7498FF1FBB
:105568007498FF1F7C98FF1F7C98FF1F8498FF1F6B
:105578008498FF1F8C98FF1F8C98FF1F9498FF1F1B
:105588009498FF1F9C98FF1F9C98FF1FA498FF1FCB
:10559800A498FF1FAC98FF1FAC98FF1FB498FF1F7B
:1055A800B498FF1FBC98FF1FBC98FF1FC498FF1F2B
:1055B800C498FF1FCC98FF1FCC98FF1FD498FF1FDB
:1055C800D498FF1FDC98FF1FDC98FF1FE498FF1F8B
:1055D800E498FF1FEC98FF1FEC98FF1FF498FF1F3B
:1055E800F498FF1FFC98FF1FFC98FF1F0499FF1FEA
:1055F8000499FF1F0C99FF1F0C99FF1F1499FF1F97
:105608001499FF1F1C99FF1F1C99FF1F2499FF1F46
:105618002499FF1F2C99FF1F2C99FF1F3499FF1FF6
:105628003499FF1F3C99FF1F3C99FF1F4499FF1FA6
:105638004499FF1F4C99FF1F4C99FF1F5499FF1F56
:105648005499FF1F5C99FF1F5C99FF1F6499FF1F06
:105658006499FF1F6C99FF1F6C99FF1F7499FF1FB6
:105668007499FF1F7C99FF1F7C99FF1F8499FF1F66
:105678008499FF1F8C99FF1F8C99FF1F9499FF1F16
:105688009499FF1F9C99FF1F9C99FF1FA499FF1FC6
:10569800A499FF1FAC99FF1FAC99FF1FB499FF1F76
:1056A800B499FF1FBC99FF1FBC99FF1FC499FF1F26
:1056B800C499FF1FCC99FF1FCC99FF1FD499FF1FD6
:1056C800D499FF1FDC99FF1FDC99FF1FE499FF1F86
:1056D800E499FF1FEC99FF1FEC99FF1FF499FF1F36
:1056E800F499FF1FFC99FF1FFC99FF1F049AFF1FE5
:1056F800049AFF1F0C9AFF1F0C9AFF1F149AFF1F92
:10570800149AFF1F1C9AFF1F1C9AFF1F249AFF1F41
:10571800249AFF1F2C9AFF1F2C9AFF1F349AFF1FF1
:10572800349AFF1F3C9AFF1F3C9AFF1F449AFF1FA1
:10573800449AFF1F4C9AFF1F4C9AFF1F549AFF1F51
:10574800549AFF1F5C9AFF1F5C9AFF1F649AFF1F01
:10575800649AFF1F6C9AFF1F6C9AFF1F749AFF1FB1
:10576800749AFF1F7C9AFF1F7C9AFF1F849AFF1F61
:10577800849AFF1F8C9AFF1F8C9AFF1F949AFF1F11
:10578800949AFF1F9C9AFF1F9C9AFF1FA49AFF1FC1
:10579800A49AFF1FAC9AFF1FAC9AFF1FB49AFF1F71
:1057A800B49AFF1FBC9AFF1FBC9AFF1FC49AFF1F21
:1057B800C49AFF1FCC9AFF1FCC9AFF1FD49AFF1FD1
:1057C800D49AFF1FDC9AFF1FDC9AFF1FE49AFF1F81
:1057D800E49AFF1FEC9AFF1FEC9AFF1FF49AFF1F31
:1057E800F49AFF1FFC9AFF1FFC9AFF1F049BFF1FE0
:1057F800049BFF1F0C9BFF1F0C9BFF1F149BFF1F8D
:10580800149BFF1F1C9BFF1F1C9BFF1F249BFF1F3C
:10581800249BFF1F2C9BFF1F2C9BFF1F349BFF1FEC
:10582800349BFF1F3C9BFF1F3C9BFF1F449BFF1F9C
:10583800449BFF1F4C9BFF1F4C9BFF1F549BFF1F4C
:10584800549BFF1F5C9BFF1F5C9BFF1F649BFF1FFC
:10585800649BFF1F6C9BFF1F6C9BFF1F749BFF1FAC
:10586800749BFF1F7C9BFF1F7C9BFF1F849BFF1F5C
:10587800849BFF1F8C9BFF1F8C9BFF1F949BFF1F0C
:10588800949BFF1F9C9BFF1F9C9BFF1FA49BFF1FBC
:10589800A49BFF1FAC9BFF1FAC9BFF1FB49BFF1F6C
:1058A800B49BFF1FBC9BFF1FBC9BFF1FC49BFF1F1C
:1058B800C49BFF1FCC9BFF1FCC9BFF1FD49BFF1FCC
:1058C800D49BFF1FDC9BFF1FDC9BFF1FE49BFF1F7C
:1058D800E49BFF1FEC9BFF1FEC9BFF1FF49BFF1F2C
:1058E800F49BFF1FFC9BFF1FFC9BFF1F049CFF1FDB
:1058F800049CFF1F0C9CFF1F0C9CFF1F149CFF1F88
:10590800149CFF1F1C9CFF1F1C9CFF1F249CFF1F37
:10591800249CFF1F2C9CFF1F2C9CFF1F349CFF1FE7
:10592800349CFF1F3C9CFF1F3C9CFF1F449CFF1F97
:0C593800449CFF1F00000200FFFFFFFF67
:00000001FF
